{
  "contractName": "Tweets",
  "abi": [
    {
      "inputs": [],
      "stateMutability": "nonpayable",
      "type": "constructor"
    },
    {
      "anonymous": false,
      "inputs": [
        {
          "indexed": false,
          "internalType": "uint256",
          "name": "id",
          "type": "uint256"
        }
      ],
      "name": "getCounter",
      "type": "event"
    },
    {
      "anonymous": false,
      "inputs": [
        {
          "indexed": false,
          "internalType": "address",
          "name": "tweeter",
          "type": "address"
        },
        {
          "indexed": false,
          "internalType": "uint256",
          "name": "id",
          "type": "uint256"
        },
        {
          "indexed": false,
          "internalType": "string",
          "name": "tweetText",
          "type": "string"
        },
        {
          "indexed": false,
          "internalType": "string",
          "name": "tweetImg",
          "type": "string"
        },
        {
          "indexed": false,
          "internalType": "string",
          "name": "fileUrl",
          "type": "string"
        }
      ],
      "name": "tweetPublished",
      "type": "event"
    },
    {
      "inputs": [],
      "name": "owner",
      "outputs": [
        {
          "internalType": "address",
          "name": "",
          "type": "address"
        }
      ],
      "stateMutability": "view",
      "type": "function"
    },
    {
      "inputs": [
        {
          "internalType": "uint256",
          "name": "id",
          "type": "uint256"
        }
      ],
      "name": "getTweet",
      "outputs": [
        {
          "internalType": "string",
          "name": "",
          "type": "string"
        },
        {
          "internalType": "string",
          "name": "",
          "type": "string"
        },
        {
          "internalType": "string",
          "name": "",
          "type": "string"
        },
        {
          "internalType": "address",
          "name": "",
          "type": "address"
        }
      ],
      "stateMutability": "view",
      "type": "function"
    },
    {
      "inputs": [
        {
          "internalType": "string",
          "name": "text",
          "type": "string"
        },
        {
          "internalType": "string",
          "name": "img",
          "type": "string"
        },
        {
          "internalType": "string",
          "name": "fileUrl",
          "type": "string"
        }
      ],
      "name": "addTweet",
      "outputs": [],
      "stateMutability": "payable",
      "type": "function"
    },
    {
      "inputs": [],
      "name": "getdata",
      "outputs": [],
      "stateMutability": "nonpayable",
      "type": "function"
    }
  ],
  "bytecode": "0x608060405234801561001057600080fd5b506000600181905550336000806101000a81548173ffffffffffffffffffffffffffffffffffffffff021916908373ffffffffffffffffffffffffffffffffffffffff160217905550610c08806100686000396000f3fe60806040526004361061003f5760003560e01c80634fa10cfc146100445780638da5cb5b1461005b578063c3ad5ecb14610086578063e7e38d8c146100c6575b600080fd5b34801561005057600080fd5b506100596100e2565b005b34801561006757600080fd5b5061007061011d565b60405161007d91906107e3565b60405180910390f35b34801561009257600080fd5b506100ad60048036038101906100a89190610719565b610141565b6040516100bd9493929190610866565b60405180910390f35b6100e060048036038101906100db9190610672565b610388565b005b7f214aed45df880cafea886a343a0d1a0991747e5fcd02b5419ef742bf0cb1db0e6001546040516101139190610900565b60405180910390a1565b60008054906101000a900473ffffffffffffffffffffffffffffffffffffffff1681565b60608060606000600154851061018c576040517f08c379a0000000000000000000000000000000000000000000000000000000008152600401610183906108c0565b60405180910390fd5b60006002600087815260200190815260200160002090508060020181600301826004018360000160009054906101000a900473ffffffffffffffffffffffffffffffffffffffff168380546101e090610a0b565b80601f016020809104026020016040519081016040528092919081815260200182805461020c90610a0b565b80156102595780601f1061022e57610100808354040283529160200191610259565b820191906000526020600020905b81548152906001019060200180831161023c57829003601f168201915b5050505050935082805461026c90610a0b565b80601f016020809104026020016040519081016040528092919081815260200182805461029890610a0b565b80156102e55780601f106102ba576101008083540402835291602001916102e5565b820191906000526020600020905b8154815290600101906020018083116102c857829003601f168201915b505050505092508180546102f890610a0b565b80601f016020809104026020016040519081016040528092919081815260200182805461032490610a0b565b80156103715780601f1061034657610100808354040283529160200191610371565b820191906000526020600020905b81548152906001019060200180831161035457829003601f168201915b505050505091509450945094509450509193509193565b67016345785d8a000034146103d2576040517f08c379a00000000000000000000000000000000000000000000000000000000081526004016103c9906108e0565b60405180910390fd5b600060026000600154815260200190815260200160002090508381600201908051906020019061040392919061054a565b508281600301908051906020019061041c92919061054a565b50338160000160006101000a81548173ffffffffffffffffffffffffffffffffffffffff021916908373ffffffffffffffffffffffffffffffffffffffff16021790555060015481600101819055508181600401908051906020019061048392919061054a565b507fa5fc0551b0a8ed810d23e04a57d9b47d2e3812b4ee5a952f42d2655911244c9d336001548686866040516104bd9594939291906107fe565b60405180910390a1600160008154809291906104d890610a6e565b919050555060008054906101000a900473ffffffffffffffffffffffffffffffffffffffff1673ffffffffffffffffffffffffffffffffffffffff166108fc349081150290604051600060405180830381858888f19350505050158015610543573d6000803e3d6000fd5b5050505050565b82805461055690610a0b565b90600052602060002090601f01602090048101928261057857600085556105bf565b82601f1061059157805160ff19168380011785556105bf565b828001600101855582156105bf579182015b828111156105be5782518255916020019190600101906105a3565b5b5090506105cc91906105d0565b5090565b5b808211156105e95760008160009055506001016105d1565b5090565b60006106006105fb84610940565b61091b565b90508281526020810184848401111561061c5761061b610b49565b5b6106278482856109c9565b509392505050565b600082601f83011261064457610643610b44565b5b81356106548482602086016105ed565b91505092915050565b60008135905061066c81610bbb565b92915050565b60008060006060848603121561068b5761068a610b53565b5b600084013567ffffffffffffffff8111156106a9576106a8610b4e565b5b6106b58682870161062f565b935050602084013567ffffffffffffffff8111156106d6576106d5610b4e565b5b6106e28682870161062f565b925050604084013567ffffffffffffffff81111561070357610702610b4e565b5b61070f8682870161062f565b9150509250925092565b60006020828403121561072f5761072e610b53565b5b600061073d8482850161065d565b91505092915050565b61074f8161098d565b82525050565b600061076082610971565b61076a818561097c565b935061077a8185602086016109d8565b61078381610b58565b840191505092915050565b600061079b600d8361097c565b91506107a682610b69565b602082019050919050565b60006107be60118361097c565b91506107c982610b92565b602082019050919050565b6107dd816109bf565b82525050565b60006020820190506107f86000830184610746565b92915050565b600060a0820190506108136000830188610746565b61082060208301876107d4565b81810360408301526108328186610755565b905081810360608301526108468185610755565b9050818103608083015261085a8184610755565b90509695505050505050565b600060808201905081810360008301526108808187610755565b905081810360208301526108948186610755565b905081810360408301526108a88185610755565b90506108b76060830184610746565b95945050505050565b600060208201905081810360008301526108d98161078e565b9050919050565b600060208201905081810360008301526108f9816107b1565b9050919050565b600060208201905061091560008301846107d4565b92915050565b6000610925610936565b90506109318282610a3d565b919050565b6000604051905090565b600067ffffffffffffffff82111561095b5761095a610b15565b5b61096482610b58565b9050602081019050919050565b600081519050919050565b600082825260208201905092915050565b60006109988261099f565b9050919050565b600073ffffffffffffffffffffffffffffffffffffffff82169050919050565b6000819050919050565b82818337600083830152505050565b60005b838110156109f65780820151818401526020810190506109db565b83811115610a05576000848401525b50505050565b60006002820490506001821680610a2357607f821691505b60208210811415610a3757610a36610ae6565b5b50919050565b610a4682610b58565b810181811067ffffffffffffffff82111715610a6557610a64610b15565b5b80604052505050565b6000610a79826109bf565b91507fffffffffffffffffffffffffffffffffffffffffffffffffffffffffffffffff821415610aac57610aab610ab7565b5b600182019050919050565b7f4e487b7100000000000000000000000000000000000000000000000000000000600052601160045260246000fd5b7f4e487b7100000000000000000000000000000000000000000000000000000000600052602260045260246000fd5b7f4e487b7100000000000000000000000000000000000000000000000000000000600052604160045260246000fd5b600080fd5b600080fd5b600080fd5b600080fd5b6000601f19601f8301169050919050565b7f4e6f207375636820747765657400000000000000000000000000000000000000600082015250565b7f706c656173652067697665206d6f6e6579000000000000000000000000000000600082015250565b610bc4816109bf565b8114610bcf57600080fd5b5056fea26469706673582212209ed8fffca7ae016ee849c9f39ce136fbd5368dc5ee45c9fcb4659bc0cfe8a51f64736f6c63430008070033",
  "immutableReferences": {},
  "source": "// SPDX-License-Identifier: MIT\r\npragma solidity ^0.8.7;\r\n\r\ncontract Tweets{\r\n    address public owner;\r\n    uint private counter;\r\n\r\n    constructor(){\r\n        counter = 0;\r\n        owner = msg.sender;\r\n    }\r\n    struct tweet{\r\n        address tweeter;\r\n        uint id;\r\n        string tweetText;\r\n        string tweetImg;\r\n        string fileUrl;\r\n    }\r\n\r\n    event tweetPublished(\r\n        address tweeter,\r\n        uint id,\r\n        string tweetText,\r\n        string tweetImg,\r\n        string fileUrl\r\n    );\r\n    event getCounter(uint id);\r\n\r\n    mapping(uint256 => tweet) tweets;\r\n\r\n    function getTweet(uint256 id)public view returns(string memory,string memory,string memory,address){\r\n        require(id < counter,\"No such tweet\");\r\n        tweet storage item = tweets[id];\r\n        return (item.tweetText, item.tweetImg,item.fileUrl,item.tweeter);\r\n\r\n    }\r\n    function addTweet(string memory text,string memory img,string memory fileUrl)public payable{\r\n        require(msg.value == (0.1 ether),\"please give money\");\r\n        tweet storage newTweet = tweets[counter];\r\n        newTweet.tweetText = text;\r\n        newTweet.tweetImg = img;\r\n        newTweet.tweeter = msg.sender;\r\n        newTweet.id = counter;\r\n        newTweet.fileUrl = fileUrl;\r\n\r\n        emit tweetPublished(msg.sender,counter,text,img,fileUrl);\r\n        counter++;\r\n        //        owner\r\n        payable(owner).transfer(msg.value);\r\n\r\n\r\n    }\r\n    function getdata() public {\r\n        emit getCounter(counter);\r\n    }\r\n}\r\n",
  "sourcePath": "C:\\Users\\13988\\Desktop\\Twitter-Example-starter-sc\\contracts\\Tweets.sol",
  "compiler": {
    "name": "solc",
    "version": "0.8.7+commit.e28d00a7.Emscripten.clang"
  },
  "schemaVersion": "3.4.7",
  "updatedAt": "2022-07-17T07:07:42.773Z",
  "devdoc": {
    "kind": "dev",
    "methods": {},
    "version": 1
  },
  "userdoc": {
    "kind": "user",
    "methods": {},
    "version": 1
  }
}